{
  "contractName": "BotManagement",
  "abi": [
    {
      "constant": false,
      "inputs": [
        {
          "name": "",
          "type": "address"
        }
      ],
      "name": "addAccount",
      "outputs": [
        {
          "name": "",
          "type": "bool"
        }
      ],
      "payable": false,
      "stateMutability": "nonpayable",
      "type": "function"
    },
    {
      "constant": true,
      "inputs": [
        {
          "name": "",
          "type": "address"
        }
      ],
      "name": "checkAccount",
      "outputs": [
        {
          "name": "",
          "type": "bool"
        }
      ],
      "payable": false,
      "stateMutability": "view",
      "type": "function"
    }
  ],
  "bytecode": "0x608060405234801561001057600080fd5b50610141806100206000396000f30060806040526004361061004c576000357c0100000000000000000000000000000000000000000000000000000000900463ffffffff16806369921c2614610051578063e89b0e1e146100ac575b600080fd5b34801561005d57600080fd5b50610092600480360381019080803573ffffffffffffffffffffffffffffffffffffffff169060200190929190505050610107565b604051808215151515815260200191505060405180910390f35b3480156100b857600080fd5b506100ed600480360381019080803573ffffffffffffffffffffffffffffffffffffffff16906020019092919050505061010e565b604051808215151515815260200191505060405180910390f35b6000919050565b60009190505600a165627a7a72305820d70e13d662ca17ae53c1c8fded7da1cf8171253e95fddb74160a17ec13e7cdef0029",
  "source": "    pragma solidity ^0.4.21;\n    \n    contract BotManagement{\n            function addAccount(address) public returns(bool){}\n            function checkAccount(address) public view returns(bool){}\n    }\n    \n    \n    contract DateTime{\n        function getYear(uint256) constant returns (uint16) {}\n        function getMonth(uint256) constant returns (uint16) {}\n        function getDay(uint256) constant returns (uint16) {}\n        function getHour(uint256) constant returns (uint16) {}\n        function getMinute(uint256) constant returns (uint16) {}\n        function getSecond(uint256) constant returns (uint16) {}\n        function toTimestamp(uint16 year, uint8 month, uint8 day, uint8 hour, uint8 minute, uint8 second) constant returns (uint) {}\n    }\n\n    contract Vehicles{\n        DateTime dateTimeContract;\n       \n        \n        //Khởi tạo address có quyền truy cập ban đầu.\n        constructor(address _address) public{\n              permissionList[_address].owner = _address;\n              permissionList[_address].typePermis = 1;\n              dateTimeContract = DateTime(address(0xe8660491d945560fecb719bdb96479bed17c577c));\n        }\n        \n       \n        \n        //Liên kết với smart contract quản lý BOT\n        int complete_setup = 0;\n        BotManagement botMgmtContract;\n        \n       function setBotMgmt(address _address)  public {\n            if ((checkPermission()==1) && (complete_setup==0)) {\n                \n                botMgmtContract = BotManagement(_address);\n            }\n        }\n    \n        //Các address có quyền truy cập tới smart contract này.\n        struct Permission{\n            address owner;\n            int256 typePermis;\n            //0. Bị thu hồi các quyền.\n            //1. Cấp quyền cho các account khác và các quyền còn lại.\n            //2. Chỉ có quyền đăng ký phương tiện, ko có quyền cấp quyền cho account khác.\n        }\n    \n        //Danh sách các address có quyền truy cập\n        mapping (address => Permission) permissionList;\n       \n       //Thông tin cá nhân của người đăng ký phương tiện giao thông\n        struct Person {\n            address owner;\n            uint256 dateRegis;\n           \n        }\n        \n        struct OwnerVehicle{\n            string[] plate_id;\n            uint256[] index;\n        }\n        \n        mapping(address => OwnerVehicle)  ownerVehilces;\n        \n        function getOwnerVehicle(address _owner, uint256 index) public view returns(string, uint256, bool){\n            uint256  dateRegis = vehicles[ownerVehilces[_owner].plate_id[index]].persons[ownerVehilces[_owner].index[index]].dateRegis;\n            if (getLastOwner(ownerVehilces[_owner].plate_id[index])!=_owner){\n                return (ownerVehilces[_owner].plate_id[index], dateRegis, false);\n            }\n            else{\n                 return (ownerVehilces[_owner].plate_id[index], dateRegis, true);\n            }\n        }\n        \n        function getOwnerVehicleLenght(address _owner) public constant returns(uint count) {\n            return ownerVehilces[_owner].plate_id.length;\n        }\n    \n        \n        //Lưu thông tin phương tiện\n        struct Vehicle{        \n            string plate_id;\n            mapping (uint256 => Person) persons;//Danh sách các chủ từng sở hữu phương tiện\n            uint256 lenghtPerson;//Số lần xe đổi chủ\n            string name;\n            string typeOfVehicle;\n            string color;\n            uint256 datePro;\n            string charactic;\n            string manufac;\n            string serial;\n            int status; //1. active, 0. deactive, -1. stolen.\n        }\n        \n        //Danh sách các phương tiện\n        mapping (string => Vehicle) vehicles;\n        \n        string[] public vehiclesList;\n        \n        //Kiểm tra trạng thái của phương tiện, đang hoạt động, ko hoạt động hay đã bị trộm\n        function getStatus(string _plate_id) public view   returns(int){\n            return (vehicles[_plate_id].status);\n        }\n        \n       \n        //Kiểm tra xem chủ nhân address có phải chủ phương tiện. Dùng để\n        //kiểm tra khi có người yêu cầu thay đổi thông tin về phương tiện.\n        function checkOwner(address _owner, string _plate_id) public view returns(bool){\n             if (vehicles[_plate_id].persons[vehicles[_plate_id].lenghtPerson -1 ].owner != _owner){\n                return (false);\n            }\n            else{\n                return (true);\n            }\n        }\n        \n        //Kiểm tra xem address request lên smart contract có những quyền gì\n        function checkPermission() public view returns(int256){\n                return permissionList[msg.sender].typePermis;\n        }\n        \n      \n    \n        //Thêm address có quyền truy cập smart contract\n        function addPermission(address _address, int256 _type) public returns(bool){\n        if (checkPermission() == 1) {\n            permissionList[_address].owner = _address;\n            permissionList[_address].typePermis = _type;\n            \n            return true;\n        }\n        return false;\n           \n        }\n        \n        //Đăng ký thêm phương tiện\n        function addVehicle(address _owner, string _plate_id, string _name, string _type, string _color, uint256 _datePro, string _charac, string _manufac, string _serial) public returns (bool){\n            if (checkPermission()<1){\n                return false;\n            }\n            else{\n                \n            if (!botMgmtContract.checkAccount(_owner)){\n                botMgmtContract.addAccount(_owner);\n            }\n            \n            Vehicle storage vehicle = vehicles[_plate_id];\n            \n            vehicle.lenghtPerson = 0;\n     \n            Person storage p = vehicle.persons[vehicle.lenghtPerson] ;\n            p.owner = _owner;\n            p.dateRegis= now;\n            \n            vehicle.plate_id = _plate_id;\n            vehicle.name = _name;\n            vehicle.typeOfVehicle = _type;\n            vehicle.color = _color;\n            vehicle.datePro = _datePro;\n            vehicle.charactic = _charac;\n            vehicle.manufac = _manufac;\n            vehicle.serial = _serial;\n            vehicle.status = 1;\n            ownerVehilces[_owner].plate_id.push(_plate_id) -1;\n            ownerVehilces[_owner].index.push(vehicle.lenghtPerson) -1;\n            vehicle.lenghtPerson++;\n            vehiclesList.push(_plate_id) -1;\n            return true;\n        }\n    }\n    \n        //Chuyển đổi chủ sở hữu phương tiện.\n        function changeOwner(string _plate_id, address _owner, address _new_owner) public returns (bool){\n           if (checkPermission()<1){\n                return false;\n            }\n            \n           if (!checkOwner(_owner, _plate_id)){\n               return false;\n           }\n            else{\n                  Person storage p = vehicles[_plate_id].persons[vehicles[_plate_id].lenghtPerson] ;\n                  p.owner = _new_owner;\n                  p.dateRegis =now;\n                  \n                  ownerVehilces[_new_owner].plate_id.push(_plate_id) -1;\n                  ownerVehilces[_new_owner].index.push(vehicles[_plate_id].lenghtPerson) -1;\n                  \n                  vehicles[_plate_id].lenghtPerson ++;\n                  return true;\n            }\n        }\n        \n        //Thay đổi trạng thái của phương tiện\n        function changeStatus(string _plate_id, address _owner, int _status) public returns(bool){\n            if (checkPermission()<1){\n                return false;\n            }\n            \n            if (!checkOwner(_owner, _plate_id)){\n                return false;\n            }\n            else{\n                vehicles[_plate_id].status = _status;\n                return (true);\n            }\n        }\n    \n        //Lấy số lượng chủ mà phương tiện đã qua tay\n        function getOwnerLength(string _plate_id) public view returns(uint){\n            return vehicles[_plate_id].lenghtPerson;\n        }\n    \n         //Lấy thông tin người chủ cuối cùng của phương tiện\n        function getLastOwner(string _plate_id) public view returns (address){\n            return (vehicles[_plate_id].persons[vehicles[_plate_id].lenghtPerson-1].owner);\n        }\n    \n        //Lấy thông tin về chủ phương tiện\n        function getOwnerInfo(string _plate_id, uint256 index) public view returns (address, uint256){\n            return (vehicles[_plate_id].persons[index].owner, vehicles[_plate_id].persons[index].dateRegis);\n        }\n        \n        function getType(string _plate_id) public view returns (string){\n            return vehicles[_plate_id].typeOfVehicle;\n        }\n       \n        //Lấy thông tin về phương tiện - những thông tin cố định.\n        function getFixedInfo(string _plate_id) view public returns (string, string, uint256, string, string) {\n            return(vehicles[_plate_id].name, vehicles[_plate_id].typeOfVehicle, vehicles[_plate_id].datePro, vehicles[_plate_id].manufac, vehicles[_plate_id].serial);\n        }\n    \n        //Lấy thông tin về phương tiện - những thông tin có thể bị thay đổi.\n        function getDynamicInfo(string _plate_id) view public returns (address, uint256, string, string, int){\n            address _owner = vehicles[_plate_id].persons[vehicles[_plate_id].lenghtPerson-1].owner;\n            uint256 _dateRegis = vehicles[_plate_id].persons[vehicles[_plate_id].lenghtPerson-1].dateRegis;\n            return (_owner, _dateRegis , vehicles[_plate_id].color, vehicles[_plate_id].charactic, vehicles[_plate_id].status);\n        }\n    }\n",
  "sourcePath": "/Users/ps/Desktop/Hackathon/Train/Vehicle-Management/contracts/Vehicles.sol",
  "compiler": {
    "name": "solc",
    "version": "0.4.24+commit.e67f0147.Emscripten.clang"
  },
  "schemaVersion": "2.0.1",
  "updatedAt": "2018-08-27T08:23:41.294Z"
}