{
  "contractName": "Vehicles",
  "abi": [
    {
      "constant": true,
      "inputs": [
        {
          "name": "",
          "type": "uint256"
        }
      ],
      "name": "vehiclesList",
      "outputs": [
        {
          "name": "",
          "type": "string"
        }
      ],
      "payable": false,
      "stateMutability": "view",
      "type": "function"
    },
    {
      "inputs": [
        {
          "name": "_address",
          "type": "address"
        }
      ],
      "payable": false,
      "stateMutability": "nonpayable",
      "type": "constructor"
    },
    {
      "constant": false,
      "inputs": [
        {
          "name": "_address",
          "type": "address"
        }
      ],
      "name": "setBotMgmt",
      "outputs": [],
      "payable": false,
      "stateMutability": "nonpayable",
      "type": "function"
    },
    {
      "constant": true,
      "inputs": [
        {
          "name": "_owner",
          "type": "address"
        },
        {
          "name": "index",
          "type": "uint256"
        }
      ],
      "name": "getOwnerVehicle",
      "outputs": [
        {
          "name": "",
          "type": "string"
        },
        {
          "name": "",
          "type": "uint256"
        },
        {
          "name": "",
          "type": "bool"
        }
      ],
      "payable": false,
      "stateMutability": "view",
      "type": "function"
    },
    {
      "constant": true,
      "inputs": [
        {
          "name": "_owner",
          "type": "address"
        }
      ],
      "name": "getOwnerVehicleLenght",
      "outputs": [
        {
          "name": "count",
          "type": "uint256"
        }
      ],
      "payable": false,
      "stateMutability": "view",
      "type": "function"
    },
    {
      "constant": true,
      "inputs": [
        {
          "name": "_plate_id",
          "type": "string"
        }
      ],
      "name": "getStatus",
      "outputs": [
        {
          "name": "",
          "type": "int256"
        }
      ],
      "payable": false,
      "stateMutability": "view",
      "type": "function"
    },
    {
      "constant": true,
      "inputs": [
        {
          "name": "_owner",
          "type": "address"
        },
        {
          "name": "_plate_id",
          "type": "string"
        }
      ],
      "name": "checkOwner",
      "outputs": [
        {
          "name": "",
          "type": "bool"
        }
      ],
      "payable": false,
      "stateMutability": "view",
      "type": "function"
    },
    {
      "constant": true,
      "inputs": [],
      "name": "checkPermission",
      "outputs": [
        {
          "name": "",
          "type": "int256"
        }
      ],
      "payable": false,
      "stateMutability": "view",
      "type": "function"
    },
    {
      "constant": false,
      "inputs": [
        {
          "name": "_address",
          "type": "address"
        },
        {
          "name": "_type",
          "type": "int256"
        }
      ],
      "name": "addPermission",
      "outputs": [
        {
          "name": "",
          "type": "bool"
        }
      ],
      "payable": false,
      "stateMutability": "nonpayable",
      "type": "function"
    },
    {
      "constant": false,
      "inputs": [
        {
          "name": "_owner",
          "type": "address"
        },
        {
          "name": "_plate_id",
          "type": "string"
        },
        {
          "name": "_name",
          "type": "string"
        },
        {
          "name": "_type",
          "type": "string"
        },
        {
          "name": "_color",
          "type": "string"
        },
        {
          "name": "_datePro",
          "type": "uint256"
        },
        {
          "name": "_charac",
          "type": "string"
        },
        {
          "name": "_manufac",
          "type": "string"
        },
        {
          "name": "_serial",
          "type": "string"
        }
      ],
      "name": "addVehicle",
      "outputs": [
        {
          "name": "",
          "type": "bool"
        }
      ],
      "payable": false,
      "stateMutability": "nonpayable",
      "type": "function"
    },
    {
      "constant": false,
      "inputs": [
        {
          "name": "_plate_id",
          "type": "string"
        },
        {
          "name": "_owner",
          "type": "address"
        },
        {
          "name": "_new_owner",
          "type": "address"
        }
      ],
      "name": "changeOwner",
      "outputs": [
        {
          "name": "",
          "type": "bool"
        }
      ],
      "payable": false,
      "stateMutability": "nonpayable",
      "type": "function"
    },
    {
      "constant": false,
      "inputs": [
        {
          "name": "_plate_id",
          "type": "string"
        },
        {
          "name": "_owner",
          "type": "address"
        },
        {
          "name": "_status",
          "type": "int256"
        }
      ],
      "name": "changeStatus",
      "outputs": [
        {
          "name": "",
          "type": "bool"
        }
      ],
      "payable": false,
      "stateMutability": "nonpayable",
      "type": "function"
    },
    {
      "constant": true,
      "inputs": [
        {
          "name": "_plate_id",
          "type": "string"
        }
      ],
      "name": "getOwnerLength",
      "outputs": [
        {
          "name": "",
          "type": "uint256"
        }
      ],
      "payable": false,
      "stateMutability": "view",
      "type": "function"
    },
    {
      "constant": true,
      "inputs": [
        {
          "name": "_plate_id",
          "type": "string"
        }
      ],
      "name": "getLastOwner",
      "outputs": [
        {
          "name": "",
          "type": "address"
        }
      ],
      "payable": false,
      "stateMutability": "view",
      "type": "function"
    },
    {
      "constant": true,
      "inputs": [
        {
          "name": "_plate_id",
          "type": "string"
        },
        {
          "name": "index",
          "type": "uint256"
        }
      ],
      "name": "getOwnerInfo",
      "outputs": [
        {
          "name": "",
          "type": "address"
        },
        {
          "name": "",
          "type": "uint256"
        }
      ],
      "payable": false,
      "stateMutability": "view",
      "type": "function"
    },
    {
      "constant": true,
      "inputs": [
        {
          "name": "_plate_id",
          "type": "string"
        }
      ],
      "name": "getType",
      "outputs": [
        {
          "name": "",
          "type": "string"
        }
      ],
      "payable": false,
      "stateMutability": "view",
      "type": "function"
    },
    {
      "constant": true,
      "inputs": [
        {
          "name": "_plate_id",
          "type": "string"
        }
      ],
      "name": "getFixedInfo",
      "outputs": [
        {
          "name": "",
          "type": "string"
        },
        {
          "name": "",
          "type": "string"
        },
        {
          "name": "",
          "type": "string"
        },
        {
          "name": "",
          "type": "uint256"
        },
        {
          "name": "",
          "type": "string"
        },
        {
          "name": "",
          "type": "string"
        }
      ],
      "payable": false,
      "stateMutability": "view",
      "type": "function"
    },
    {
      "constant": true,
      "inputs": [
        {
          "name": "_plate_id",
          "type": "string"
        }
      ],
      "name": "getDynamicInfo",
      "outputs": [
        {
          "name": "",
          "type": "address"
        },
        {
          "name": "",
          "type": "uint256"
        },
        {
          "name": "",
          "type": "string"
        },
        {
          "name": "",
          "type": "string"
        },
        {
          "name": "",
          "type": "int256"
        }
      ],
      "payable": false,
      "stateMutability": "view",
      "type": "function"
    }
  ],
  "bytecode": "0x6080604052600060015534801561001557600080fd5b506040516020806131f98339810180604052810190808051906020019092919050505080600360008373ffffffffffffffffffffffffffffffffffffffff1673ffffffffffffffffffffffffffffffffffffffff16815260200190815260200160002060000160006101000a81548173ffffffffffffffffffffffffffffffffffffffff021916908373ffffffffffffffffffffffffffffffffffffffff1602179055506001600360008373ffffffffffffffffffffffffffffffffffffffff1673ffffffffffffffffffffffffffffffffffffffff1681526020019081526020016000206001018190555073e8660491d945560fecb719bdb96479bed17c577c6000806101000a81548173ffffffffffffffffffffffffffffffffffffffff021916908373ffffffffffffffffffffffffffffffffffffffff16021790555050613094806101656000396000f3006080604052600436106100f1576000357c0100000000000000000000000000000000000000000000000000000000900463ffffffff168063102b4a76146100f657806322b05ed2146101a157806330fe49e51461021e57806332db5402146102835780633975917c146103005780634fdb5afc146103a15780635a1c58301461045b578063723312581461048657806373c9c5de1461052c578063985ba97f1461060457806398d68d9e146106e6578063b19eb55614610875578063d045278b1461091e578063d2497e8614610961578063e11196e014610bb0578063f979dff614610e49578063ffa8767a14610f0a575b600080fd5b34801561010257600080fd5b50610187600480360381019080803590602001908201803590602001908080601f0160208091040260200160405190810160405280939291908181526020018383808284378201915050505050509192919290803573ffffffffffffffffffffffffffffffffffffffff16906020019092919080359060200190929190505050610f61565b604051808215151515815260200191505060405180910390f35b3480156101ad57600080fd5b50610208600480360381019080803590602001908201803590602001908080601f0160208091040260200160405190810160405280939291908181526020018383808284378201915050505050509192919290505050611014565b6040518082815260200191505060405180910390f35b34801561022a57600080fd5b50610269600480360381019080803573ffffffffffffffffffffffffffffffffffffffff1690602001909291908035906020019092919050505061108c565b604051808215151515815260200191505060405180910390f35b34801561028f57600080fd5b506102ea600480360381019080803590602001908201803590602001908080601f016020809104026020016040519081016040528093929190818152602001838380828437820191505050505050919291929050505061117a565b6040518082815260200191505060405180910390f35b34801561030c57600080fd5b50610387600480360381019080803573ffffffffffffffffffffffffffffffffffffffff169060200190929190803590602001908201803590602001908080601f01602080910402602001604051908101604052809392919081815260200183838082843782019150505050505091929192905050506111f2565b604051808215151515815260200191505060405180910390f35b3480156103ad57600080fd5b50610412600480360381019080803590602001908201803590602001908080601f016020809104026020016040519081016040528093929190818152602001838380828437820191505050505050919291929080359060200190929190505050611350565b604051808373ffffffffffffffffffffffffffffffffffffffff1673ffffffffffffffffffffffffffffffffffffffff1681526020018281526020019250505060405180910390f35b34801561046757600080fd5b50610470611484565b6040518082815260200191505060405180910390f35b34801561049257600080fd5b506104b1600480360381019080803590602001909291905050506114ce565b6040518080602001828103825283818151815260200191508051906020019080838360005b838110156104f15780820151818401526020810190506104d6565b50505050905090810190601f16801561051e5780820380516001836020036101000a031916815260200191505b509250505060405180910390f35b34801561053857600080fd5b50610577600480360381019080803573ffffffffffffffffffffffffffffffffffffffff16906020019092919080359060200190929190505050611589565b604051808060200184815260200183151515158152602001828103825285818151815260200191508051906020019080838360005b838110156105c75780820151818401526020810190506105ac565b50505050905090810190601f1680156105f45780820380516001836020036101000a031916815260200191505b5094505050505060405180910390f35b34801561061057600080fd5b5061066b600480360381019080803590602001908201803590602001908080601f0160208091040260200160405190810160405280939291908181526020018383808284378201915050505050509192919290505050611a04565b6040518080602001828103825283818151815260200191508051906020019080838360005b838110156106ab578082015181840152602081019050610690565b50505050905090810190601f1680156106d85780820380516001836020036101000a031916815260200191505b509250505060405180910390f35b3480156106f257600080fd5b5061074d600480360381019080803590602001908201803590602001908080601f0160208091040260200160405190810160405280939291908181526020018383808284378201915050505050509192919290505050611b14565b604051808673ffffffffffffffffffffffffffffffffffffffff1673ffffffffffffffffffffffffffffffffffffffff1681526020018581526020018060200180602001848152602001838103835286818151815260200191508051906020019080838360005b838110156107cf5780820151818401526020810190506107b4565b50505050905090810190601f1680156107fc5780820380516001836020036101000a031916815260200191505b50838103825285818151815260200191508051906020019080838360005b8381101561083557808201518184015260208101905061081a565b50505050905090810190601f1680156108625780820380516001836020036101000a031916815260200191505b5097505050505050505060405180910390f35b34801561088157600080fd5b506108dc600480360381019080803590602001908201803590602001908080601f0160208091040260200160405190810160405280939291908181526020018383808284378201915050505050509192919290505050611fc5565b604051808273ffffffffffffffffffffffffffffffffffffffff1673ffffffffffffffffffffffffffffffffffffffff16815260200191505060405180910390f35b34801561092a57600080fd5b5061095f600480360381019080803573ffffffffffffffffffffffffffffffffffffffff1690602001909291905050506120e2565b005b34801561096d57600080fd5b50610b96600480360381019080803573ffffffffffffffffffffffffffffffffffffffff169060200190929190803590602001908201803590602001908080601f0160208091040260200160405190810160405280939291908181526020018383808284378201915050505050509192919290803590602001908201803590602001908080601f0160208091040260200160405190810160405280939291908181526020018383808284378201915050505050509192919290803590602001908201803590602001908080601f0160208091040260200160405190810160405280939291908181526020018383808284378201915050505050509192919290803590602001908201803590602001908080601f016020809104026020016040519081016040528093929190818152602001838380828437820191505050505050919291929080359060200190929190803590602001908201803590602001908080601f0160208091040260200160405190810160405280939291908181526020018383808284378201915050505050509192919290803590602001908201803590602001908080601f0160208091040260200160405190810160405280939291908181526020018383808284378201915050505050509192919290803590602001908201803590602001908080601f0160208091040260200160405190810160405280939291908181526020018383808284378201915050505050509192919290505050612145565b604051808215151515815260200191505060405180910390f35b348015610bbc57600080fd5b50610c17600480360381019080803590602001908201803590602001908080601f016020809104026020016040519081016040528093929190818152602001838380828437820191505050505050919291929050505061265a565b60405180806020018060200180602001878152602001806020018060200186810386528c818151815260200191508051906020019080838360005b83811015610c6d578082015181840152602081019050610c52565b50505050905090810190601f168015610c9a5780820380516001836020036101000a031916815260200191505b5086810385528b818151815260200191508051906020019080838360005b83811015610cd3578082015181840152602081019050610cb8565b50505050905090810190601f168015610d005780820380516001836020036101000a031916815260200191505b5086810384528a818151815260200191508051906020019080838360005b83811015610d39578082015181840152602081019050610d1e565b50505050905090810190601f168015610d665780820380516001836020036101000a031916815260200191505b50868103835288818151815260200191508051906020019080838360005b83811015610d9f578082015181840152602081019050610d84565b50505050905090810190601f168015610dcc5780820380516001836020036101000a031916815260200191505b50868103825287818151815260200191508051906020019080838360005b83811015610e05578082015181840152602081019050610dea565b50505050905090810190601f168015610e325780820380516001836020036101000a031916815260200191505b509b50505050505050505050505060405180910390f35b348015610e5557600080fd5b50610ef0600480360381019080803590602001908201803590602001908080601f0160208091040260200160405190810160405280939291908181526020018383808284378201915050505050509192919290803573ffffffffffffffffffffffffffffffffffffffff169060200190929190803573ffffffffffffffffffffffffffffffffffffffff169060200190929190505050612c1a565b604051808215151515815260200191505060405180910390f35b348015610f1657600080fd5b50610f4b600480360381019080803573ffffffffffffffffffffffffffffffffffffffff169060200190929190505050612f74565b6040518082815260200191505060405180910390f35b60006001610f6d611484565b1215610f7c576000905061100d565b610f8683856111f2565b1515610f95576000905061100d565b816005856040518082805190602001908083835b602083101515610fce5780518252602082019150602081019050602083039250610fa9565b6001836020036101000a0380198251168184511680821785525050505050509050019150509081526020016040518091039020600a0181905550600190505b9392505050565b60006005826040518082805190602001908083835b60208310151561104e5780518252602082019150602081019050602083039250611029565b6001836020036101000a0380198251168184511680821785525050505050509050019150509081526020016040518091039020600a01549050919050565b60006001611098611484565b141561116f5782600360008573ffffffffffffffffffffffffffffffffffffffff1673ffffffffffffffffffffffffffffffffffffffff16815260200190815260200160002060000160006101000a81548173ffffffffffffffffffffffffffffffffffffffff021916908373ffffffffffffffffffffffffffffffffffffffff16021790555081600360008573ffffffffffffffffffffffffffffffffffffffff1673ffffffffffffffffffffffffffffffffffffffff1681526020019081526020016000206001018190555060019050611174565b600090505b92915050565b60006005826040518082805190602001908083835b6020831015156111b4578051825260208201915060208101905060208303925061118f565b6001836020036101000a0380198251168184511680821785525050505050509050019150509081526020016040518091039020600201549050919050565b60008273ffffffffffffffffffffffffffffffffffffffff166005836040518082805190602001908083835b602083101515611243578051825260208201915060208101905060208303925061121e565b6001836020036101000a0380198251168184511680821785525050505050509050019150509081526020016040518091039020600101600060016005866040518082805190602001908083835b6020831015156112b55780518252602082019150602081019050602083039250611290565b6001836020036101000a03801982511681845116808217855250505050505090500191505090815260200160405180910390206002015403815260200190815260200160002060000160009054906101000a900473ffffffffffffffffffffffffffffffffffffffff1673ffffffffffffffffffffffffffffffffffffffff16141515611345576000905061134a565b600190505b92915050565b6000806005846040518082805190602001908083835b60208310151561138b5780518252602082019150602081019050602083039250611366565b6001836020036101000a0380198251168184511680821785525050505050509050019150509081526020016040518091039020600101600084815260200190815260200160002060000160009054906101000a900473ffffffffffffffffffffffffffffffffffffffff166005856040518082805190602001908083835b60208310151561142e5780518252602082019150602081019050602083039250611409565b6001836020036101000a0380198251168184511680821785525050505050509050019150509081526020016040518091039020600101600085815260200190815260200160002060010154915091509250929050565b6000600360003373ffffffffffffffffffffffffffffffffffffffff1673ffffffffffffffffffffffffffffffffffffffff16815260200190815260200160002060010154905090565b6006818154811015156114dd57fe5b906000526020600020016000915090508054600181600116156101000203166002900480601f0160208091040260200160405190810160405280929190818152602001828054600181600116156101000203166002900480156115815780601f1061155657610100808354040283529160200191611581565b820191906000526020600020905b81548152906001019060200180831161156457829003601f168201915b505050505081565b606060008060006005600460008873ffffffffffffffffffffffffffffffffffffffff1673ffffffffffffffffffffffffffffffffffffffff168152602001908152602001600020600001868154811015156115e157fe5b9060005260206000200160405180828054600181600116156101000203166002900480156116465780601f10611624576101008083540402835291820191611646565b820191906000526020600020905b815481529060010190602001808311611632575b505091505090815260200160405180910390206001016000600460008973ffffffffffffffffffffffffffffffffffffffff1673ffffffffffffffffffffffffffffffffffffffff168152602001908152602001600020600101878154811015156116ad57fe5b906000526020600020015481526020019081526020016000206001015490508573ffffffffffffffffffffffffffffffffffffffff166117dd600460008973ffffffffffffffffffffffffffffffffffffffff1673ffffffffffffffffffffffffffffffffffffffff1681526020019081526020016000206000018781548110151561173557fe5b906000526020600020018054600181600116156101000203166002900480601f0160208091040260200160405190810160405280929190818152602001828054600181600116156101000203166002900480156117d35780601f106117a8576101008083540402835291602001916117d3565b820191906000526020600020905b8154815290600101906020018083116117b657829003601f168201915b5050505050611fc5565b73ffffffffffffffffffffffffffffffffffffffff161415156118fd57600460008773ffffffffffffffffffffffffffffffffffffffff1673ffffffffffffffffffffffffffffffffffffffff1681526020019081526020016000206000018581548110151561184957fe5b90600052602060002001816000828054600181600116156101000203166002900480601f0160208091040260200160405190810160405280929190818152602001828054600181600116156101000203166002900480156118eb5780601f106118c0576101008083540402835291602001916118eb565b820191906000526020600020905b8154815290600101906020018083116118ce57829003601f168201915b505050505092509350935093506119fc565b600460008773ffffffffffffffffffffffffffffffffffffffff1673ffffffffffffffffffffffffffffffffffffffff1681526020019081526020016000206000018581548110151561194c57fe5b90600052602060002001816001828054600181600116156101000203166002900480601f0160208091040260200160405190810160405280929190818152602001828054600181600116156101000203166002900480156119ee5780601f106119c3576101008083540402835291602001916119ee565b820191906000526020600020905b8154815290600101906020018083116119d157829003601f168201915b505050505092509350935093505b509250925092565b60606005826040518082805190602001908083835b602083101515611a3e5780518252602082019150602081019050602083039250611a19565b6001836020036101000a03801982511681845116808217855250505050505090500191505090815260200160405180910390206004018054600181600116156101000203166002900480601f016020809104026020016040519081016040528092919081815260200182805460018160011615610100020316600290048015611b085780601f10611add57610100808354040283529160200191611b08565b820191906000526020600020905b815481529060010190602001808311611aeb57829003601f168201915b50505050509050919050565b60008060608060008060006005886040518082805190602001908083835b602083101515611b575780518252602082019150602081019050602083039250611b32565b6001836020036101000a03801982511681845116808217855250505050505090500191505090815260200160405180910390206001016000600160058b6040518082805190602001908083835b602083101515611bc95780518252602082019150602081019050602083039250611ba4565b6001836020036101000a03801982511681845116808217855250505050505090500191505090815260200160405180910390206002015403815260200190815260200160002060000160009054906101000a900473ffffffffffffffffffffffffffffffffffffffff1691506005886040518082805190602001908083835b602083101515611c6d5780518252602082019150602081019050602083039250611c48565b6001836020036101000a03801982511681845116808217855250505050505090500191505090815260200160405180910390206001016000600160058b6040518082805190602001908083835b602083101515611cdf5780518252602082019150602081019050602083039250611cba565b6001836020036101000a038019825116818451168082178552505050505050905001915050908152602001604051809103902060020154038152602001908152602001600020600101549050818160058a6040518082805190602001908083835b602083101515611d655780518252602082019150602081019050602083039250611d40565b6001836020036101000a038019825116818451168082178552505050505050905001915050908152602001604051809103902060050160058b6040518082805190602001908083835b602083101515611dd35780518252602082019150602081019050602083039250611dae565b6001836020036101000a038019825116818451168082178552505050505050905001915050908152602001604051809103902060070160058c6040518082805190602001908083835b602083101515611e415780518252602082019150602081019050602083039250611e1c565b6001836020036101000a0380198251168184511680821785525050505050509050019150509081526020016040518091039020600a0154828054600181600116156101000203166002900480601f016020809104026020016040519081016040528092919081815260200182805460018160011615610100020316600290048015611f0d5780601f10611ee257610100808354040283529160200191611f0d565b820191906000526020600020905b815481529060010190602001808311611ef057829003601f168201915b50505050509250818054600181600116156101000203166002900480601f016020809104026020016040519081016040528092919081815260200182805460018160011615610100020316600290048015611fa95780601f10611f7e57610100808354040283529160200191611fa9565b820191906000526020600020905b815481529060010190602001808311611f8c57829003601f168201915b5050505050915096509650965096509650505091939590929450565b60006005826040518082805190602001908083835b602083101515611fff5780518252602082019150602081019050602083039250611fda565b6001836020036101000a0380198251168184511680821785525050505050509050019150509081526020016040518091039020600101600060016005856040518082805190602001908083835b602083101515612071578051825260208201915060208101905060208303925061204c565b6001836020036101000a03801982511681845116808217855250505050505090500191505090815260200160405180910390206002015403815260200190815260200160002060000160009054906101000a900473ffffffffffffffffffffffffffffffffffffffff169050919050565b60016120ec611484565b1480156120fb57506000600154145b156121425780600260006101000a81548173ffffffffffffffffffffffffffffffffffffffff021916908373ffffffffffffffffffffffffffffffffffffffff1602179055505b50565b60008060006001612154611484565b1215612163576000925061264b565b600260009054906101000a900473ffffffffffffffffffffffffffffffffffffffff1673ffffffffffffffffffffffffffffffffffffffff166369921c268d6040518263ffffffff167c0100000000000000000000000000000000000000000000000000000000028152600401808273ffffffffffffffffffffffffffffffffffffffff1673ffffffffffffffffffffffffffffffffffffffff168152602001915050602060405180830381600087803b15801561222057600080fd5b505af1158015612234573d6000803e3d6000fd5b505050506040513d602081101561224a57600080fd5b8101908080519060200190929190505050151561235b57600260009054906101000a900473ffffffffffffffffffffffffffffffffffffffff1673ffffffffffffffffffffffffffffffffffffffff1663e89b0e1e8d6040518263ffffffff167c0100000000000000000000000000000000000000000000000000000000028152600401808273ffffffffffffffffffffffffffffffffffffffff1673ffffffffffffffffffffffffffffffffffffffff168152602001915050602060405180830381600087803b15801561231e57600080fd5b505af1158015612332573d6000803e3d6000fd5b505050506040513d602081101561234857600080fd5b8101908080519060200190929190505050505b60058b6040518082805190602001908083835b602083101515612393578051825260208201915060208101905060208303925061236e565b6001836020036101000a03801982511681845116808217855250505050505090500191505090815260200160405180910390209150600082600201819055508160010160008360020154815260200190815260200160002090508b8160000160006101000a81548173ffffffffffffffffffffffffffffffffffffffff021916908373ffffffffffffffffffffffffffffffffffffffff1602179055504281600101819055508a826000019080519060200190612451929190612fc3565b508982600301908051906020019061246a929190612fc3565b5088826004019080519060200190612483929190612fc3565b508782600501908051906020019061249c929190612fc3565b50868260060181905550858260070190805190602001906124be929190612fc3565b50848260080190805190602001906124d7929190612fc3565b50838260090190805190602001906124f0929190612fc3565b50600182600a01819055506001600460008e73ffffffffffffffffffffffffffffffffffffffff1673ffffffffffffffffffffffffffffffffffffffff1681526020019081526020016000206000018c908060018154018082558091505090600182039060005260206000200160009091929091909150908051906020019061257a929190612fc3565b5050506001600460008e73ffffffffffffffffffffffffffffffffffffffff1673ffffffffffffffffffffffffffffffffffffffff16815260200190815260200160002060010183600201549080600181540180825580915050906001820390600052602060002001600090919290919091505550508160020160008154809291906001019190505550600160068c9080600181540180825580915050906001820390600052602060002001600090919290919091509080519060200190612643929190612fc3565b505050600192505b50509998505050505050505050565b606080606060006060806005876040518082805190602001908083835b60208310151561269c5780518252602082019150602081019050602083039250612677565b6001836020036101000a03801982511681845116808217855250505050505090500191505090815260200160405180910390206000016005886040518082805190602001908083835b60208310151561270a57805182526020820191506020810190506020830392506126e5565b6001836020036101000a03801982511681845116808217855250505050505090500191505090815260200160405180910390206003016005896040518082805190602001908083835b6020831015156127785780518252602082019150602081019050602083039250612753565b6001836020036101000a038019825116818451168082178552505050505050905001915050908152602001604051809103902060040160058a6040518082805190602001908083835b6020831015156127e657805182526020820191506020810190506020830392506127c1565b6001836020036101000a03801982511681845116808217855250505050505090500191505090815260200160405180910390206006015460058b6040518082805190602001908083835b6020831015156128555780518252602082019150602081019050602083039250612830565b6001836020036101000a038019825116818451168082178552505050505050905001915050908152602001604051809103902060080160058c6040518082805190602001908083835b6020831015156128c3578051825260208201915060208101905060208303925061289e565b6001836020036101000a0380198251168184511680821785525050505050509050019150509081526020016040518091039020600901858054600181600116156101000203166002900480601f01602080910402602001604051908101604052809291908181526020018280546001816001161561010002031660029004801561298e5780601f106129635761010080835404028352916020019161298e565b820191906000526020600020905b81548152906001019060200180831161297157829003601f168201915b50505050509550848054600181600116156101000203166002900480601f016020809104026020016040519081016040528092919081815260200182805460018160011615610100020316600290048015612a2a5780601f106129ff57610100808354040283529160200191612a2a565b820191906000526020600020905b815481529060010190602001808311612a0d57829003601f168201915b50505050509450838054600181600116156101000203166002900480601f016020809104026020016040519081016040528092919081815260200182805460018160011615610100020316600290048015612ac65780601f10612a9b57610100808354040283529160200191612ac6565b820191906000526020600020905b815481529060010190602001808311612aa957829003601f168201915b50505050509350818054600181600116156101000203166002900480601f016020809104026020016040519081016040528092919081815260200182805460018160011615610100020316600290048015612b625780601f10612b3757610100808354040283529160200191612b62565b820191906000526020600020905b815481529060010190602001808311612b4557829003601f168201915b50505050509150808054600181600116156101000203166002900480601f016020809104026020016040519081016040528092919081815260200182805460018160011615610100020316600290048015612bfe5780601f10612bd357610100808354040283529160200191612bfe565b820191906000526020600020905b815481529060010190602001808311612be157829003601f168201915b5050505050905095509550955095509550955091939550919395565b6000806001612c27611484565b1215612c365760009150612f6c565b612c4084866111f2565b1515612c4f5760009150612f6c565b6005856040518082805190602001908083835b602083101515612c875780518252602082019150602081019050602083039250612c62565b6001836020036101000a038019825116818451168082178552505050505050905001915050908152602001604051809103902060010160006005876040518082805190602001908083835b602083101515612cf75780518252602082019150602081019050602083039250612cd2565b6001836020036101000a03801982511681845116808217855250505050505090500191505090815260200160405180910390206002015481526020019081526020016000209050828160000160006101000a81548173ffffffffffffffffffffffffffffffffffffffff021916908373ffffffffffffffffffffffffffffffffffffffff1602179055504281600101819055506001600460008573ffffffffffffffffffffffffffffffffffffffff1673ffffffffffffffffffffffffffffffffffffffff168152602001908152602001600020600001869080600181540180825580915050906001820390600052602060002001600090919290919091509080519060200190612e09929190612fc3565b5050506001600460008573ffffffffffffffffffffffffffffffffffffffff1673ffffffffffffffffffffffffffffffffffffffff1681526020019081526020016000206001016005876040518082805190602001908083835b602083101515612e885780518252602082019150602081019050602083039250612e63565b6001836020036101000a0380198251168184511680821785525050505050509050019150509081526020016040518091039020600201549080600181540180825580915050906001820390600052602060002001600090919290919091505550506005856040518082805190602001908083835b602083101515612f215780518252602082019150602081019050602083039250612efc565b6001836020036101000a038019825116818451168082178552505050505050905001915050908152602001604051809103902060020160008154809291906001019190505550600191505b509392505050565b6000600460008373ffffffffffffffffffffffffffffffffffffffff1673ffffffffffffffffffffffffffffffffffffffff168152602001908152602001600020600001805490509050919050565b828054600181600116156101000203166002900490600052602060002090601f016020900481019282601f1061300457805160ff1916838001178555613032565b82800160010185558215613032579182015b82811115613031578251825591602001919060010190613016565b5b50905061303f9190613043565b5090565b61306591905b80821115613061576000816000905550600101613049565b5090565b905600a165627a7a723058207278ebfdf7a96befee7f596abd77e81bb7abeaeaed3ee35d3c7300e72f725f220029",
  "source": "    pragma solidity ^0.4.21;\n    \n    contract BotManagement{\n            function addAccount(address) public returns(bool){}\n            function checkAccount(address) public view returns(bool){}\n    }\n    \n    \n    contract DateTime{\n        function getYear(uint256) constant returns (uint16) {}\n        function getMonth(uint256) constant returns (uint16) {}\n        function getDay(uint256) constant returns (uint16) {}\n        function getHour(uint256) constant returns (uint16) {}\n        function getMinute(uint256) constant returns (uint16) {}\n        function getSecond(uint256) constant returns (uint16) {}\n        function toTimestamp(uint16 year, uint8 month, uint8 day, uint8 hour, uint8 minute, uint8 second) constant returns (uint) {}\n    }\n\n    contract Vehicles{\n        DateTime dateTimeContract;\n       \n        \n        //Khi to address c quyn truy cp ban u.\n        constructor(address _address) public{\n              permissionList[_address].owner = _address;\n              permissionList[_address].typePermis = 1;\n              dateTimeContract = DateTime(address(0xe8660491d945560fecb719bdb96479bed17c577c));\n        }\n        \n       \n        \n        //Lin kt vi smart contract qun l BOT\n        int complete_setup = 0;\n        BotManagement botMgmtContract;\n        \n       function setBotMgmt(address _address)  public {\n            if ((checkPermission()==1) && (complete_setup==0)) {\n                \n                botMgmtContract = BotManagement(_address);\n            }\n        }\n    \n        //Cc address c quyn truy cp ti smart contract ny.\n        struct Permission{\n            address owner;\n            int256 typePermis;\n            //0. B thu hi cc quyn.\n            //1. Cp quyn cho cc account khc v cc quyn cn li.\n            //2. Ch c quyn ng k phng tin, ko c quyn cp quyn cho account khc.\n        }\n    \n        //Danh sch cc address c quyn truy cp\n        mapping (address => Permission) permissionList;\n       \n       //Thng tin c nhn ca ngi ng k phng tin giao thng\n        struct Person {\n            address owner;\n            uint256 dateRegis;\n           \n        }\n        \n        struct OwnerVehicle{\n            string[] plate_id;\n            uint256[] index;\n        }\n        \n        mapping(address => OwnerVehicle)  ownerVehilces;\n        \n        function getOwnerVehicle(address _owner, uint256 index) public view returns(string, uint256, bool){\n            uint256  dateRegis = vehicles[ownerVehilces[_owner].plate_id[index]].persons[ownerVehilces[_owner].index[index]].dateRegis;\n            if (getLastOwner(ownerVehilces[_owner].plate_id[index])!=_owner){\n                return (ownerVehilces[_owner].plate_id[index], dateRegis, false);\n            }\n            else{\n                 return (ownerVehilces[_owner].plate_id[index], dateRegis, true);\n            }\n        }\n        \n        function getOwnerVehicleLenght(address _owner) public constant returns(uint count) {\n            return ownerVehilces[_owner].plate_id.length;\n        }\n    \n        \n        //Lu thng tin phng tin\n        struct Vehicle{        \n            string plate_id;\n            mapping (uint256 => Person) persons;//Danh sch cc ch tng s hu phng tin\n            uint256 lenghtPerson;//S ln xe i ch\n            string name;\n            string typeOfVehicle;\n            string color;\n            uint256 datePro;\n            string charactic;\n            string manufac;\n            string serial;\n            int status; //1. active, 0. deactive, -1. stolen.\n        }\n        \n        //Danh sch cc phng tin\n        mapping (string => Vehicle) vehicles;\n        \n        string[] public vehiclesList;\n        \n        //Kim tra trng thi ca phng tin, ang hot ng, ko hot ng hay  b trm\n        function getStatus(string _plate_id) public view   returns(int){\n            return (vehicles[_plate_id].status);\n        }\n        \n       \n        //Kim tra xem ch nhn address c phi ch phng tin. Dng \n        //kim tra khi c ngi yu cu thay i thng tin v phng tin.\n        function checkOwner(address _owner, string _plate_id) public view returns(bool){\n             if (vehicles[_plate_id].persons[vehicles[_plate_id].lenghtPerson -1 ].owner != _owner){\n                return (false);\n            }\n            else{\n                return (true);\n            }\n        }\n        \n        //Kim tra xem address request ln smart contract c nhng quyn g\n        function checkPermission() public view returns(int256){\n                return permissionList[msg.sender].typePermis;\n        }\n        \n      \n    \n        //Thm address c quyn truy cp smart contract\n        function addPermission(address _address, int256 _type) public returns(bool){\n        if (checkPermission() == 1) {\n            permissionList[_address].owner = _address;\n            permissionList[_address].typePermis = _type;\n            \n            return true;\n        }\n        return false;\n           \n        }\n        \n        //ng k thm phng tin\n        function addVehicle(address _owner, string _plate_id, string _name, string _type, string _color, uint256 _datePro, string _charac, string _manufac, string _serial) public returns (bool){\n            if (checkPermission()<1){\n                return false;\n            }\n            else{\n                \n            if (!botMgmtContract.checkAccount(_owner)){\n                botMgmtContract.addAccount(_owner);\n            }\n            \n            Vehicle storage vehicle = vehicles[_plate_id];\n            \n            vehicle.lenghtPerson = 0;\n     \n            Person storage p = vehicle.persons[vehicle.lenghtPerson] ;\n            p.owner = _owner;\n            p.dateRegis= now;\n            \n            vehicle.plate_id = _plate_id;\n            vehicle.name = _name;\n            vehicle.typeOfVehicle = _type;\n            vehicle.color = _color;\n            vehicle.datePro = _datePro;\n            vehicle.charactic = _charac;\n            vehicle.manufac = _manufac;\n            vehicle.serial = _serial;\n            vehicle.status = 1;\n            ownerVehilces[_owner].plate_id.push(_plate_id) -1;\n            ownerVehilces[_owner].index.push(vehicle.lenghtPerson) -1;\n            vehicle.lenghtPerson++;\n            vehiclesList.push(_plate_id) -1;\n            return true;\n        }\n    }\n    \n        //Chuyn i ch s hu phng tin.\n        function changeOwner(string _plate_id, address _owner, address _new_owner) public returns (bool){\n           if (checkPermission()<1){\n                return false;\n            }\n            \n           if (!checkOwner(_owner, _plate_id)){\n               return false;\n           }\n            else{\n                  Person storage p = vehicles[_plate_id].persons[vehicles[_plate_id].lenghtPerson] ;\n                  p.owner = _new_owner;\n                  p.dateRegis =now;\n                  \n                  ownerVehilces[_new_owner].plate_id.push(_plate_id) -1;\n                  ownerVehilces[_new_owner].index.push(vehicles[_plate_id].lenghtPerson) -1;\n                  \n                  vehicles[_plate_id].lenghtPerson ++;\n                  return true;\n            }\n        }\n        \n        //Thay i trng thi ca phng tin\n        function changeStatus(string _plate_id, address _owner, int _status) public returns(bool){\n            if (checkPermission()<1){\n                return false;\n            }\n            \n            if (!checkOwner(_owner, _plate_id)){\n                return false;\n            }\n            else{\n                vehicles[_plate_id].status = _status;\n                return (true);\n            }\n        }\n    \n        //Ly s lng ch m phng tin  qua tay\n        function getOwnerLength(string _plate_id) public view returns(uint){\n            return vehicles[_plate_id].lenghtPerson;\n        }\n    \n         //Ly thng tin ngi ch cui cng ca phng tin\n        function getLastOwner(string _plate_id) public view returns (address){\n            return (vehicles[_plate_id].persons[vehicles[_plate_id].lenghtPerson-1].owner);\n        }\n    \n        //Ly thng tin v ch phng tin\n        function getOwnerInfo(string _plate_id, uint256 index) public view returns (address, uint256){\n            return (vehicles[_plate_id].persons[index].owner, vehicles[_plate_id].persons[index].dateRegis);\n        }\n        \n        function getType(string _plate_id) public view returns (string){\n            return vehicles[_plate_id].typeOfVehicle;\n        }\n       \n        //Ly thng tin v phng tin - nhng thng tin c nh.\n        function getFixedInfo(string _plate_id) view public returns (string, string, string, uint256, string, string) {\n            return(vehicles[_plate_id].plate_id, vehicles[_plate_id].name, vehicles[_plate_id].typeOfVehicle, vehicles[_plate_id].datePro, vehicles[_plate_id].manufac, vehicles[_plate_id].serial);\n        }\n    \n        //Ly thng tin v phng tin - nhng thng tin c th b thay i.\n        function getDynamicInfo(string _plate_id) view public returns (address, uint256, string, string, int){\n            address _owner = vehicles[_plate_id].persons[vehicles[_plate_id].lenghtPerson-1].owner;\n            uint256 _dateRegis = vehicles[_plate_id].persons[vehicles[_plate_id].lenghtPerson-1].dateRegis;\n            return (_owner, _dateRegis , vehicles[_plate_id].color, vehicles[_plate_id].charactic, vehicles[_plate_id].status);\n        }\n    }\n",
  "sourcePath": "/Users/ps/Desktop/Hackathon/Train/Vehicle-Management/contracts/Vehicles.sol",
  "compiler": {
    "name": "solc",
    "version": "0.4.24+commit.e67f0147.Emscripten.clang"
  },
  "schemaVersion": "2.0.1",
  "updatedAt": "2018-08-28T02:32:28.368Z"
}