{
  "contractName": "Vehicles",
  "abi": [
    {
      "constant": true,
      "inputs": [
        {
          "name": "",
          "type": "uint256"
        }
      ],
      "name": "vehiclesList",
      "outputs": [
        {
          "name": "",
          "type": "string"
        }
      ],
      "payable": false,
      "stateMutability": "view",
      "type": "function"
    },
    {
      "inputs": [
        {
          "name": "_address",
          "type": "address"
        }
      ],
      "payable": false,
      "stateMutability": "nonpayable",
      "type": "constructor"
    },
    {
      "constant": false,
      "inputs": [
        {
          "name": "_address",
          "type": "address"
        }
      ],
      "name": "setBotMgmt",
      "outputs": [],
      "payable": false,
      "stateMutability": "nonpayable",
      "type": "function"
    },
    {
      "constant": true,
      "inputs": [
        {
          "name": "_owner",
          "type": "address"
        },
        {
          "name": "index",
          "type": "uint256"
        }
      ],
      "name": "getOwnerVehicle",
      "outputs": [
        {
          "name": "",
          "type": "string"
        },
        {
          "name": "",
          "type": "string"
        },
        {
          "name": "",
          "type": "bool"
        }
      ],
      "payable": false,
      "stateMutability": "view",
      "type": "function"
    },
    {
      "constant": true,
      "inputs": [
        {
          "name": "_owner",
          "type": "address"
        }
      ],
      "name": "getOwnerVehicleLenght",
      "outputs": [
        {
          "name": "count",
          "type": "uint256"
        }
      ],
      "payable": false,
      "stateMutability": "view",
      "type": "function"
    },
    {
      "constant": true,
      "inputs": [
        {
          "name": "_plate_id",
          "type": "string"
        }
      ],
      "name": "getStatus",
      "outputs": [
        {
          "name": "",
          "type": "int256"
        }
      ],
      "payable": false,
      "stateMutability": "view",
      "type": "function"
    },
    {
      "constant": true,
      "inputs": [
        {
          "name": "_owner",
          "type": "address"
        },
        {
          "name": "_plate_id",
          "type": "string"
        }
      ],
      "name": "checkOwner",
      "outputs": [
        {
          "name": "",
          "type": "bool"
        }
      ],
      "payable": false,
      "stateMutability": "view",
      "type": "function"
    },
    {
      "constant": true,
      "inputs": [],
      "name": "checkPermission",
      "outputs": [
        {
          "name": "",
          "type": "int256"
        }
      ],
      "payable": false,
      "stateMutability": "view",
      "type": "function"
    },
    {
      "constant": false,
      "inputs": [
        {
          "name": "_address",
          "type": "address"
        },
        {
          "name": "_type",
          "type": "int256"
        }
      ],
      "name": "addPermission",
      "outputs": [
        {
          "name": "",
          "type": "bool"
        }
      ],
      "payable": false,
      "stateMutability": "nonpayable",
      "type": "function"
    },
    {
      "constant": false,
      "inputs": [
        {
          "name": "_owner",
          "type": "address"
        },
        {
          "name": "_plate_id",
          "type": "string"
        },
        {
          "name": "_name",
          "type": "string"
        },
        {
          "name": "_type",
          "type": "string"
        },
        {
          "name": "_color",
          "type": "string"
        },
        {
          "name": "_datePro",
          "type": "string"
        },
        {
          "name": "_dateRegis",
          "type": "string"
        },
        {
          "name": "_charac",
          "type": "string"
        },
        {
          "name": "_manufac",
          "type": "string"
        },
        {
          "name": "_serial",
          "type": "string"
        }
      ],
      "name": "addVehicle",
      "outputs": [
        {
          "name": "",
          "type": "bool"
        }
      ],
      "payable": false,
      "stateMutability": "nonpayable",
      "type": "function"
    },
    {
      "constant": false,
      "inputs": [
        {
          "name": "_plate_id",
          "type": "string"
        },
        {
          "name": "_owner",
          "type": "address"
        },
        {
          "name": "_new_owner",
          "type": "address"
        },
        {
          "name": "_dateRegis",
          "type": "string"
        }
      ],
      "name": "changeOwner",
      "outputs": [
        {
          "name": "",
          "type": "bool"
        }
      ],
      "payable": false,
      "stateMutability": "nonpayable",
      "type": "function"
    },
    {
      "constant": false,
      "inputs": [
        {
          "name": "_plate_id",
          "type": "string"
        },
        {
          "name": "_owner",
          "type": "address"
        },
        {
          "name": "_status",
          "type": "int256"
        }
      ],
      "name": "changeStatus",
      "outputs": [
        {
          "name": "",
          "type": "bool"
        }
      ],
      "payable": false,
      "stateMutability": "nonpayable",
      "type": "function"
    },
    {
      "constant": true,
      "inputs": [
        {
          "name": "_plate_id",
          "type": "string"
        }
      ],
      "name": "getOwnerLength",
      "outputs": [
        {
          "name": "",
          "type": "uint256"
        }
      ],
      "payable": false,
      "stateMutability": "view",
      "type": "function"
    },
    {
      "constant": true,
      "inputs": [
        {
          "name": "_plate_id",
          "type": "string"
        }
      ],
      "name": "getLastOwner",
      "outputs": [
        {
          "name": "",
          "type": "address"
        }
      ],
      "payable": false,
      "stateMutability": "view",
      "type": "function"
    },
    {
      "constant": true,
      "inputs": [
        {
          "name": "_plate_id",
          "type": "string"
        },
        {
          "name": "index",
          "type": "uint256"
        }
      ],
      "name": "getOwnerInfo",
      "outputs": [
        {
          "name": "",
          "type": "address"
        },
        {
          "name": "",
          "type": "string"
        }
      ],
      "payable": false,
      "stateMutability": "view",
      "type": "function"
    },
    {
      "constant": true,
      "inputs": [
        {
          "name": "_plate_id",
          "type": "string"
        }
      ],
      "name": "getFixedInfo",
      "outputs": [
        {
          "name": "",
          "type": "string"
        },
        {
          "name": "",
          "type": "string"
        },
        {
          "name": "",
          "type": "string"
        },
        {
          "name": "",
          "type": "string"
        },
        {
          "name": "",
          "type": "string"
        }
      ],
      "payable": false,
      "stateMutability": "view",
      "type": "function"
    },
    {
      "constant": true,
      "inputs": [
        {
          "name": "_plate_id",
          "type": "string"
        }
      ],
      "name": "getDynamicInfo",
      "outputs": [
        {
          "name": "",
          "type": "address"
        },
        {
          "name": "",
          "type": "string"
        },
        {
          "name": "",
          "type": "string"
        },
        {
          "name": "",
          "type": "string"
        },
        {
          "name": "",
          "type": "int256"
        }
      ],
      "payable": false,
      "stateMutability": "view",
      "type": "function"
    }
  ],
  "bytecode": "0x60806040526000805534801561001457600080fd5b506040516020806133c38339810180604052810190808051906020019092919050505080600260008373ffffffffffffffffffffffffffffffffffffffff1673ffffffffffffffffffffffffffffffffffffffff16815260200190815260200160002060000160006101000a81548173ffffffffffffffffffffffffffffffffffffffff021916908373ffffffffffffffffffffffffffffffffffffffff1602179055506001600260008373ffffffffffffffffffffffffffffffffffffffff1673ffffffffffffffffffffffffffffffffffffffff16815260200190815260200160002060010181905550506132b3806101106000396000f3006080604052600436106100e6576000357c0100000000000000000000000000000000000000000000000000000000900463ffffffff168063102b4a76146100eb57806322b05ed21461019657806330fe49e51461021357806332db5402146102785780633975917c146102f557806345b166be146103965780634fdb5afc146106675780635a1c58301461078657806372331258146107b157806373c9c5de1461085757806386a7eafa1461099457806398d68d9e14610a9b578063b19eb55614610c8f578063d045278b14610d38578063e11196e014610d7b578063ffa8767a1461100d575b600080fd5b3480156100f757600080fd5b5061017c600480360381019080803590602001908201803590602001908080601f0160208091040260200160405190810160405280939291908181526020018383808284378201915050505050509192919290803573ffffffffffffffffffffffffffffffffffffffff16906020019092919080359060200190929190505050611064565b604051808215151515815260200191505060405180910390f35b3480156101a257600080fd5b506101fd600480360381019080803590602001908201803590602001908080601f0160208091040260200160405190810160405280939291908181526020018383808284378201915050505050509192919290505050611117565b6040518082815260200191505060405180910390f35b34801561021f57600080fd5b5061025e600480360381019080803573ffffffffffffffffffffffffffffffffffffffff1690602001909291908035906020019092919050505061118f565b604051808215151515815260200191505060405180910390f35b34801561028457600080fd5b506102df600480360381019080803590602001908201803590602001908080601f016020809104026020016040519081016040528093929190818152602001838380828437820191505050505050919291929050505061127d565b6040518082815260200191505060405180910390f35b34801561030157600080fd5b5061037c600480360381019080803573ffffffffffffffffffffffffffffffffffffffff169060200190929190803590602001908201803590602001908080601f01602080910402602001604051908101604052809392919081815260200183838082843782019150505050505091929192905050506112f5565b604051808215151515815260200191505060405180910390f35b3480156103a257600080fd5b5061064d600480360381019080803573ffffffffffffffffffffffffffffffffffffffff169060200190929190803590602001908201803590602001908080601f0160208091040260200160405190810160405280939291908181526020018383808284378201915050505050509192919290803590602001908201803590602001908080601f0160208091040260200160405190810160405280939291908181526020018383808284378201915050505050509192919290803590602001908201803590602001908080601f0160208091040260200160405190810160405280939291908181526020018383808284378201915050505050509192919290803590602001908201803590602001908080601f0160208091040260200160405190810160405280939291908181526020018383808284378201915050505050509192919290803590602001908201803590602001908080601f0160208091040260200160405190810160405280939291908181526020018383808284378201915050505050509192919290803590602001908201803590602001908080601f0160208091040260200160405190810160405280939291908181526020018383808284378201915050505050509192919290803590602001908201803590602001908080601f0160208091040260200160405190810160405280939291908181526020018383808284378201915050505050509192919290803590602001908201803590602001908080601f0160208091040260200160405190810160405280939291908181526020018383808284378201915050505050509192919290803590602001908201803590602001908080601f0160208091040260200160405190810160405280939291908181526020018383808284378201915050505050509192919290505050611453565b604051808215151515815260200191505060405180910390f35b34801561067357600080fd5b506106d8600480360381019080803590602001908201803590602001908080601f016020809104026020016040519081016040528093929190818152602001838380828437820191505050505050919291929080359060200190929190505050611989565b604051808373ffffffffffffffffffffffffffffffffffffffff1673ffffffffffffffffffffffffffffffffffffffff16815260200180602001828103825283818151815260200191508051906020019080838360005b8381101561074a57808201518184015260208101905061072f565b50505050905090810190601f1680156107775780820380516001836020036101000a031916815260200191505b50935050505060405180910390f35b34801561079257600080fd5b5061079b611b59565b6040518082815260200191505060405180910390f35b3480156107bd57600080fd5b506107dc60048036038101908080359060200190929190505050611ba3565b6040518080602001828103825283818151815260200191508051906020019080838360005b8381101561081c578082015181840152602081019050610801565b50505050905090810190601f1680156108495780820380516001836020036101000a031916815260200191505b509250505060405180910390f35b34801561086357600080fd5b506108a2600480360381019080803573ffffffffffffffffffffffffffffffffffffffff16906020019092919080359060200190929190505050611c5e565b60405180806020018060200184151515158152602001838103835286818151815260200191508051906020019080838360005b838110156108f05780820151818401526020810190506108d5565b50505050905090810190601f16801561091d5780820380516001836020036101000a031916815260200191505b50838103825285818151815260200191508051906020019080838360005b8381101561095657808201518184015260208101905061093b565b50505050905090810190601f1680156109835780820380516001836020036101000a031916815260200191505b509550505050505060405180910390f35b3480156109a057600080fd5b50610a81600480360381019080803590602001908201803590602001908080601f0160208091040260200160405190810160405280939291908181526020018383808284378201915050505050509192919290803573ffffffffffffffffffffffffffffffffffffffff169060200190929190803573ffffffffffffffffffffffffffffffffffffffff169060200190929190803590602001908201803590602001908080601f016020809104026020016040519081016040528093929190818152602001838380828437820191505050505050919291929050505061220f565b604051808215151515815260200191505060405180910390f35b348015610aa757600080fd5b50610b02600480360381019080803590602001908201803590602001908080601f016020809104026020016040519081016040528093929190818152602001838380828437820191505050505050919291929050505061257a565b604051808673ffffffffffffffffffffffffffffffffffffffff1673ffffffffffffffffffffffffffffffffffffffff168152602001806020018060200180602001858152602001848103845288818151815260200191508051906020019080838360005b83811015610b82578082015181840152602081019050610b67565b50505050905090810190601f168015610baf5780820380516001836020036101000a031916815260200191505b50848103835287818151815260200191508051906020019080838360005b83811015610be8578082015181840152602081019050610bcd565b50505050905090810190601f168015610c155780820380516001836020036101000a031916815260200191505b50848103825286818151815260200191508051906020019080838360005b83811015610c4e578082015181840152602081019050610c33565b50505050905090810190601f168015610c7b5780820380516001836020036101000a031916815260200191505b509850505050505050505060405180910390f35b348015610c9b57600080fd5b50610cf6600480360381019080803590602001908201803590602001908080601f0160208091040260200160405190810160405280939291908181526020018383808284378201915050505050509192919290505050612ac7565b604051808273ffffffffffffffffffffffffffffffffffffffff1673ffffffffffffffffffffffffffffffffffffffff16815260200191505060405180910390f35b348015610d4457600080fd5b50610d79600480360381019080803573ffffffffffffffffffffffffffffffffffffffff169060200190929190505050612be4565b005b348015610d8757600080fd5b50610de2600480360381019080803590602001908201803590602001908080601f0160208091040260200160405190810160405280939291908181526020018383808284378201915050505050509192919290505050612c46565b60405180806020018060200180602001806020018060200186810386528b818151815260200191508051906020019080838360005b83811015610e32578082015181840152602081019050610e17565b50505050905090810190601f168015610e5f5780820380516001836020036101000a031916815260200191505b5086810385528a818151815260200191508051906020019080838360005b83811015610e98578082015181840152602081019050610e7d565b50505050905090810190601f168015610ec55780820380516001836020036101000a031916815260200191505b50868103845289818151815260200191508051906020019080838360005b83811015610efe578082015181840152602081019050610ee3565b50505050905090810190601f168015610f2b5780820380516001836020036101000a031916815260200191505b50868103835288818151815260200191508051906020019080838360005b83811015610f64578082015181840152602081019050610f49565b50505050905090810190601f168015610f915780820380516001836020036101000a031916815260200191505b50868103825287818151815260200191508051906020019080838360005b83811015610fca578082015181840152602081019050610faf565b50505050905090810190601f168015610ff75780820380516001836020036101000a031916815260200191505b509a505050505050505050505060405180910390f35b34801561101957600080fd5b5061104e600480360381019080803573ffffffffffffffffffffffffffffffffffffffff169060200190929190505050613193565b6040518082815260200191505060405180910390f35b60006001611070611b59565b121561107f5760009050611110565b61108983856112f5565b15156110985760009050611110565b816004856040518082805190602001908083835b6020831015156110d157805182526020820191506020810190506020830392506110ac565b6001836020036101000a0380198251168184511680821785525050505050509050019150509081526020016040518091039020600a0181905550600190505b9392505050565b60006004826040518082805190602001908083835b602083101515611151578051825260208201915060208101905060208303925061112c565b6001836020036101000a0380198251168184511680821785525050505050509050019150509081526020016040518091039020600a01549050919050565b6000600161119b611b59565b14156112725782600260008573ffffffffffffffffffffffffffffffffffffffff1673ffffffffffffffffffffffffffffffffffffffff16815260200190815260200160002060000160006101000a81548173ffffffffffffffffffffffffffffffffffffffff021916908373ffffffffffffffffffffffffffffffffffffffff16021790555081600260008573ffffffffffffffffffffffffffffffffffffffff1673ffffffffffffffffffffffffffffffffffffffff1681526020019081526020016000206001018190555060019050611277565b600090505b92915050565b60006004826040518082805190602001908083835b6020831015156112b75780518252602082019150602081019050602083039250611292565b6001836020036101000a0380198251168184511680821785525050505050509050019150509081526020016040518091039020600201549050919050565b60008273ffffffffffffffffffffffffffffffffffffffff166004836040518082805190602001908083835b6020831015156113465780518252602082019150602081019050602083039250611321565b6001836020036101000a0380198251168184511680821785525050505050509050019150509081526020016040518091039020600101600060016004866040518082805190602001908083835b6020831015156113b85780518252602082019150602081019050602083039250611393565b6001836020036101000a03801982511681845116808217855250505050505090500191505090815260200160405180910390206002015403815260200190815260200160002060000160009054906101000a900473ffffffffffffffffffffffffffffffffffffffff1673ffffffffffffffffffffffffffffffffffffffff16141515611448576000905061144d565b600190505b92915050565b60008060006001611462611b59565b12156114715760009250611979565b600160009054906101000a900473ffffffffffffffffffffffffffffffffffffffff1673ffffffffffffffffffffffffffffffffffffffff166369921c268e6040518263ffffffff167c0100000000000000000000000000000000000000000000000000000000028152600401808273ffffffffffffffffffffffffffffffffffffffff1673ffffffffffffffffffffffffffffffffffffffff168152602001915050602060405180830381600087803b15801561152e57600080fd5b505af1158015611542573d6000803e3d6000fd5b505050506040513d602081101561155857600080fd5b8101908080519060200190929190505050151561166957600160009054906101000a900473ffffffffffffffffffffffffffffffffffffffff1673ffffffffffffffffffffffffffffffffffffffff1663e89b0e1e8e6040518263ffffffff167c0100000000000000000000000000000000000000000000000000000000028152600401808273ffffffffffffffffffffffffffffffffffffffff1673ffffffffffffffffffffffffffffffffffffffff168152602001915050602060405180830381600087803b15801561162c57600080fd5b505af1158015611640573d6000803e3d6000fd5b505050506040513d602081101561165657600080fd5b8101908080519060200190929190505050505b60048c6040518082805190602001908083835b6020831015156116a1578051825260208201915060208101905060208303925061167c565b6001836020036101000a03801982511681845116808217855250505050505090500191505090815260200160405180910390209150600082600201819055508160010160008360020154815260200190815260200160002090508c8160000160006101000a81548173ffffffffffffffffffffffffffffffffffffffff021916908373ffffffffffffffffffffffffffffffffffffffff160217905550868160010190805190602001906117569291906131e2565b508b82600001908051906020019061176f9291906131e2565b508a8260030190805190602001906117889291906131e2565b50898260040190805190602001906117a19291906131e2565b50888260050190805190602001906117ba9291906131e2565b50878260060190805190602001906117d39291906131e2565b50858260070190805190602001906117ec9291906131e2565b50848260080190805190602001906118059291906131e2565b508382600901908051906020019061181e9291906131e2565b50600182600a01819055506001600360008f73ffffffffffffffffffffffffffffffffffffffff1673ffffffffffffffffffffffffffffffffffffffff1681526020019081526020016000206000018d90806001815401808255809150509060018203906000526020600020016000909192909190915090805190602001906118a89291906131e2565b5050506001600360008f73ffffffffffffffffffffffffffffffffffffffff1673ffffffffffffffffffffffffffffffffffffffff16815260200190815260200160002060010183600201549080600181540180825580915050906001820390600052602060002001600090919290919091505550508160020160008154809291906001019190505550600160058d90806001815401808255809150509060018203906000526020600020016000909192909190915090805190602001906119719291906131e2565b505050600192505b50509a9950505050505050505050565b600060606004846040518082805190602001908083835b6020831015156119c557805182526020820191506020810190506020830392506119a0565b6001836020036101000a0380198251168184511680821785525050505050509050019150509081526020016040518091039020600101600084815260200190815260200160002060000160009054906101000a900473ffffffffffffffffffffffffffffffffffffffff166004856040518082805190602001908083835b602083101515611a685780518252602082019150602081019050602083039250611a43565b6001836020036101000a03801982511681845116808217855250505050505090500191505090815260200160405180910390206001016000858152602001908152602001600020600101808054600181600116156101000203166002900480601f016020809104026020016040519081016040528092919081815260200182805460018160011615610100020316600290048015611b475780601f10611b1c57610100808354040283529160200191611b47565b820191906000526020600020905b815481529060010190602001808311611b2a57829003601f168201915b50505050509050915091509250929050565b6000600260003373ffffffffffffffffffffffffffffffffffffffff1673ffffffffffffffffffffffffffffffffffffffff16815260200190815260200160002060010154905090565b600581815481101515611bb257fe5b906000526020600020016000915090508054600181600116156101000203166002900480601f016020809104026020016040519081016040528092919081815260200182805460018160011615610100020316600290048015611c565780601f10611c2b57610100808354040283529160200191611c56565b820191906000526020600020905b815481529060010190602001808311611c3957829003601f168201915b505050505081565b6060806000806004600360008873ffffffffffffffffffffffffffffffffffffffff1673ffffffffffffffffffffffffffffffffffffffff16815260200190815260200160002060000186815481101515611cb557fe5b906000526020600020016040518082805460018160011615610100020316600290048015611d1a5780601f10611cf8576101008083540402835291820191611d1a565b820191906000526020600020905b815481529060010190602001808311611d06575b505091505090815260200160405180910390206001016000600360008973ffffffffffffffffffffffffffffffffffffffff1673ffffffffffffffffffffffffffffffffffffffff16815260200190815260200160002060010187815481101515611d8157fe5b9060005260206000200154815260200190815260200160002060010190508573ffffffffffffffffffffffffffffffffffffffff16611eb0600360008973ffffffffffffffffffffffffffffffffffffffff1673ffffffffffffffffffffffffffffffffffffffff16815260200190815260200160002060000187815481101515611e0857fe5b906000526020600020018054600181600116156101000203166002900480601f016020809104026020016040519081016040528092919081815260200182805460018160011615610100020316600290048015611ea65780601f10611e7b57610100808354040283529160200191611ea6565b820191906000526020600020905b815481529060010190602001808311611e8957829003601f168201915b5050505050612ac7565b73ffffffffffffffffffffffffffffffffffffffff1614151561206c57600360008773ffffffffffffffffffffffffffffffffffffffff1673ffffffffffffffffffffffffffffffffffffffff16815260200190815260200160002060000185815481101515611f1c57fe5b90600052602060002001816000828054600181600116156101000203166002900480601f016020809104026020016040519081016040528092919081815260200182805460018160011615610100020316600290048015611fbe5780601f10611f9357610100808354040283529160200191611fbe565b820191906000526020600020905b815481529060010190602001808311611fa157829003601f168201915b50505050509250818054600181600116156101000203166002900480601f01602080910402602001604051908101604052809291908181526020018280546001816001161561010002031660029004801561205a5780601f1061202f5761010080835404028352916020019161205a565b820191906000526020600020905b81548152906001019060200180831161203d57829003601f168201915b50505050509150935093509350612207565b600360008773ffffffffffffffffffffffffffffffffffffffff1673ffffffffffffffffffffffffffffffffffffffff168152602001908152602001600020600001858154811015156120bb57fe5b90600052602060002001816001828054600181600116156101000203166002900480601f01602080910402602001604051908101604052809291908181526020018280546001816001161561010002031660029004801561215d5780601f106121325761010080835404028352916020019161215d565b820191906000526020600020905b81548152906001019060200180831161214057829003601f168201915b50505050509250818054600181600116156101000203166002900480601f0160208091040260200160405190810160405280929190818152602001828054600181600116156101000203166002900480156121f95780601f106121ce576101008083540402835291602001916121f9565b820191906000526020600020905b8154815290600101906020018083116121dc57829003601f168201915b505050505091509350935093505b509250925092565b600080600161221c611b59565b121561222b5760009150612571565b61223585876112f5565b15156122445760009150612571565b6004866040518082805190602001908083835b60208310151561227c5780518252602082019150602081019050602083039250612257565b6001836020036101000a038019825116818451168082178552505050505050905001915050908152602001604051809103902060010160006004886040518082805190602001908083835b6020831015156122ec57805182526020820191506020810190506020830392506122c7565b6001836020036101000a03801982511681845116808217855250505050505090500191505090815260200160405180910390206002015481526020019081526020016000209050838160000160006101000a81548173ffffffffffffffffffffffffffffffffffffffff021916908373ffffffffffffffffffffffffffffffffffffffff1602179055508281600101908051906020019061238e9291906131e2565b506001600360008673ffffffffffffffffffffffffffffffffffffffff1673ffffffffffffffffffffffffffffffffffffffff16815260200190815260200160002060000187908060018154018082558091505090600182039060005260206000200160009091929091909150908051906020019061240e9291906131e2565b5050506001600360008673ffffffffffffffffffffffffffffffffffffffff1673ffffffffffffffffffffffffffffffffffffffff1681526020019081526020016000206001016004886040518082805190602001908083835b60208310151561248d5780518252602082019150602081019050602083039250612468565b6001836020036101000a0380198251168184511680821785525050505050509050019150509081526020016040518091039020600201549080600181540180825580915050906001820390600052602060002001600090919290919091505550506004866040518082805190602001908083835b6020831015156125265780518252602082019150602081019050602083039250612501565b6001836020036101000a038019825116818451168082178552505050505050905001915050908152602001604051809103902060020160008154809291906001019190505550600191505b50949350505050565b6000606080606060008060006004886040518082805190602001908083835b6020831015156125be5780518252602082019150602081019050602083039250612599565b6001836020036101000a03801982511681845116808217855250505050505090500191505090815260200160405180910390206001016000600160048b6040518082805190602001908083835b602083101515612630578051825260208201915060208101905060208303925061260b565b6001836020036101000a03801982511681845116808217855250505050505090500191505090815260200160405180910390206002015403815260200190815260200160002060000160009054906101000a900473ffffffffffffffffffffffffffffffffffffffff1691506004886040518082805190602001908083835b6020831015156126d457805182526020820191506020810190506020830392506126af565b6001836020036101000a03801982511681845116808217855250505050505090500191505090815260200160405180910390206001016000600160048b6040518082805190602001908083835b6020831015156127465780518252602082019150602081019050602083039250612721565b6001836020036101000a0380198251168184511680821785525050505050509050019150509081526020016040518091039020600201540381526020019081526020016000206001019050818160048a6040518082805190602001908083835b6020831015156127cb57805182526020820191506020810190506020830392506127a6565b6001836020036101000a038019825116818451168082178552505050505050905001915050908152602001604051809103902060050160048b6040518082805190602001908083835b6020831015156128395780518252602082019150602081019050602083039250612814565b6001836020036101000a038019825116818451168082178552505050505050905001915050908152602001604051809103902060070160048c6040518082805190602001908083835b6020831015156128a75780518252602082019150602081019050602083039250612882565b6001836020036101000a0380198251168184511680821785525050505050509050019150509081526020016040518091039020600a0154838054600181600116156101000203166002900480601f0160208091040260200160405190810160405280929190818152602001828054600181600116156101000203166002900480156129735780601f1061294857610100808354040283529160200191612973565b820191906000526020600020905b81548152906001019060200180831161295657829003601f168201915b50505050509350828054600181600116156101000203166002900480601f016020809104026020016040519081016040528092919081815260200182805460018160011615610100020316600290048015612a0f5780601f106129e457610100808354040283529160200191612a0f565b820191906000526020600020905b8154815290600101906020018083116129f257829003601f168201915b50505050509250818054600181600116156101000203166002900480601f016020809104026020016040519081016040528092919081815260200182805460018160011615610100020316600290048015612aab5780601f10612a8057610100808354040283529160200191612aab565b820191906000526020600020905b815481529060010190602001808311612a8e57829003601f168201915b5050505050915096509650965096509650505091939590929450565b60006004826040518082805190602001908083835b602083101515612b015780518252602082019150602081019050602083039250612adc565b6001836020036101000a0380198251168184511680821785525050505050509050019150509081526020016040518091039020600101600060016004856040518082805190602001908083835b602083101515612b735780518252602082019150602081019050602083039250612b4e565b6001836020036101000a03801982511681845116808217855250505050505090500191505090815260200160405180910390206002015403815260200190815260200160002060000160009054906101000a900473ffffffffffffffffffffffffffffffffffffffff169050919050565b6001612bee611b59565b148015612bfc575060008054145b15612c435780600160006101000a81548173ffffffffffffffffffffffffffffffffffffffff021916908373ffffffffffffffffffffffffffffffffffffffff1602179055505b50565b60608060608060606004866040518082805190602001908083835b602083101515612c865780518252602082019150602081019050602083039250612c61565b6001836020036101000a03801982511681845116808217855250505050505090500191505090815260200160405180910390206003016004876040518082805190602001908083835b602083101515612cf45780518252602082019150602081019050602083039250612ccf565b6001836020036101000a03801982511681845116808217855250505050505090500191505090815260200160405180910390206004016004886040518082805190602001908083835b602083101515612d625780518252602082019150602081019050602083039250612d3d565b6001836020036101000a03801982511681845116808217855250505050505090500191505090815260200160405180910390206006016004896040518082805190602001908083835b602083101515612dd05780518252602082019150602081019050602083039250612dab565b6001836020036101000a038019825116818451168082178552505050505050905001915050908152602001604051809103902060080160048a6040518082805190602001908083835b602083101515612e3e5780518252602082019150602081019050602083039250612e19565b6001836020036101000a0380198251168184511680821785525050505050509050019150509081526020016040518091039020600901848054600181600116156101000203166002900480601f016020809104026020016040519081016040528092919081815260200182805460018160011615610100020316600290048015612f095780601f10612ede57610100808354040283529160200191612f09565b820191906000526020600020905b815481529060010190602001808311612eec57829003601f168201915b50505050509450838054600181600116156101000203166002900480601f016020809104026020016040519081016040528092919081815260200182805460018160011615610100020316600290048015612fa55780601f10612f7a57610100808354040283529160200191612fa5565b820191906000526020600020905b815481529060010190602001808311612f8857829003601f168201915b50505050509350828054600181600116156101000203166002900480601f0160208091040260200160405190810160405280929190818152602001828054600181600116156101000203166002900480156130415780601f1061301657610100808354040283529160200191613041565b820191906000526020600020905b81548152906001019060200180831161302457829003601f168201915b50505050509250818054600181600116156101000203166002900480601f0160208091040260200160405190810160405280929190818152602001828054600181600116156101000203166002900480156130dd5780601f106130b2576101008083540402835291602001916130dd565b820191906000526020600020905b8154815290600101906020018083116130c057829003601f168201915b50505050509150808054600181600116156101000203166002900480601f0160208091040260200160405190810160405280929190818152602001828054600181600116156101000203166002900480156131795780601f1061314e57610100808354040283529160200191613179565b820191906000526020600020905b81548152906001019060200180831161315c57829003601f168201915b505050505090509450945094509450945091939590929450565b6000600360008373ffffffffffffffffffffffffffffffffffffffff1673ffffffffffffffffffffffffffffffffffffffff168152602001908152602001600020600001805490509050919050565b828054600181600116156101000203166002900490600052602060002090601f016020900481019282601f1061322357805160ff1916838001178555613251565b82800160010185558215613251579182015b82811115613250578251825591602001919060010190613235565b5b50905061325e9190613262565b5090565b61328491905b80821115613280576000816000905550600101613268565b5090565b905600a165627a7a7230582039287f05d520d7349d27e9a5457591a0d12a2208bedc8195c05a1e58225130fa0029",
  "source": "    pragma solidity ^0.4.21;\n    \n    contract BotManagement{\n            function addAccount(address) public returns(bool){}\n            function checkAccount(address) public view returns(bool){}\n    }\n        \n    contract Vehicles{\n        \n        //Khi to address c quyn truy cp ban u.\n        constructor(address _address) public{\n              permissionList[_address].owner = _address;\n              permissionList[_address].typePermis = 1;\n        }\n        \n        //Lin kt vi smart contract qun l BOT\n        int complete_setup = 0;\n        BotManagement botMgmtContract;\n        \n       function setBotMgmt(address _address)  public {\n            if ((checkPermission()==1) && (complete_setup==0)) {\n                \n                botMgmtContract = BotManagement(_address);\n            }\n        }\n    \n        //Cc address c quyn truy cp ti smart contract ny.\n        struct Permission{\n            address owner;\n            int256 typePermis;\n            //0. B thu hi cc quyn.\n            //1. Cp quyn cho cc account khc v cc quyn cn li.\n            //2. Ch c quyn ng k phng tin, ko c quyn cp quyn cho account khc.\n        }\n    \n        //Danh sch cc address c quyn truy cp\n        mapping (address => Permission) permissionList;\n       \n       //Thng tin c nhn ca ngi ng k phng tin giao thng\n        struct Person {\n            address owner;\n            string dateRegis;\n           \n        }\n        \n        struct OwnerVehicle{\n            string[] plate_id;\n            uint256[] index;\n        }\n        \n        mapping(address => OwnerVehicle)  ownerVehilces;\n        \n        function getOwnerVehicle(address _owner, uint256 index) public view returns(string, string, bool){\n            string storage dateRegis = vehicles[ownerVehilces[_owner].plate_id[index]].persons[ownerVehilces[_owner].index[index]].dateRegis;\n            if (getLastOwner(ownerVehilces[_owner].plate_id[index])!=_owner){\n                return (ownerVehilces[_owner].plate_id[index], dateRegis, false);\n            }\n            else{\n                 return (ownerVehilces[_owner].plate_id[index], dateRegis, true);\n            }\n        }\n        \n        function getOwnerVehicleLenght(address _owner) public constant returns(uint count) {\n            return ownerVehilces[_owner].plate_id.length;\n        }\n    \n        \n        //Lu thng tin phng tin\n        struct Vehicle{        \n            string plate_id;\n            mapping (uint256 => Person) persons;//Danh sch cc ch tng s hu phng tin\n            uint256 lenghtPerson;//S ln xe i ch\n            string name;\n            string typeOfVehicle;\n            string color;\n            string datePro;\n            string charactic;\n            string manufac;\n            string serial;\n            int status; //1. active, 0. deactive, -1. stolen.\n        }\n        \n        //Danh sch cc phng tin\n        mapping (string => Vehicle) vehicles;\n        \n        string[] public vehiclesList;\n        \n        //Kim tra trng thi ca phng tin, ang hot ng, ko hot ng hay  b trm\n        function getStatus(string _plate_id) public view   returns(int){\n            return (vehicles[_plate_id].status);\n        }\n        \n       \n        //Kim tra xem ch nhn address c phi ch phng tin. Dng \n        //kim tra khi c ngi yu cu thay i thng tin v phng tin.\n        function checkOwner(address _owner, string _plate_id) public view returns(bool){\n             if (vehicles[_plate_id].persons[vehicles[_plate_id].lenghtPerson -1 ].owner != _owner){\n                return (false);\n            }\n            else{\n                return (true);\n            }\n        }\n        \n        //Kim tra xem address request ln smart contract c nhng quyn g\n        function checkPermission() public view returns(int256){\n                return permissionList[msg.sender].typePermis;\n        }\n        \n      \n    \n        //Thm address c quyn truy cp smart contract\n        function addPermission(address _address, int256 _type) public returns(bool){\n        if (checkPermission() == 1) {\n            permissionList[_address].owner = _address;\n            permissionList[_address].typePermis = _type;\n            \n            return true;\n        }\n        return false;\n           \n        }\n        \n        //ng k thm phng tin\n        function addVehicle(address _owner, string _plate_id, string _name, string _type, string _color, string _datePro, string _dateRegis, string _charac, string _manufac, string _serial) public returns (bool){\n            if (checkPermission()<1){\n                return false;\n            }\n            else{\n                \n            if (!botMgmtContract.checkAccount(_owner)){\n                botMgmtContract.addAccount(_owner);\n            }\n            \n            Vehicle storage vehicle = vehicles[_plate_id];\n            \n            vehicle.lenghtPerson = 0;\n     \n            Person storage p = vehicle.persons[vehicle.lenghtPerson] ;\n            p.owner = _owner;\n            p.dateRegis= _dateRegis;\n            \n            vehicle.plate_id = _plate_id;\n            vehicle.name = _name;\n            vehicle.typeOfVehicle = _type;\n            vehicle.color = _color;\n            vehicle.datePro = _datePro;\n            vehicle.charactic = _charac;\n            vehicle.manufac = _manufac;\n            vehicle.serial = _serial;\n            vehicle.status = 1;\n            ownerVehilces[_owner].plate_id.push(_plate_id) -1;\n            ownerVehilces[_owner].index.push(vehicle.lenghtPerson) -1;\n            vehicle.lenghtPerson++;\n            vehiclesList.push(_plate_id) -1;\n            return true;\n        }\n    }\n    \n        //Chuyn i ch s hu phng tin.\n        function changeOwner(string _plate_id, address _owner, address _new_owner, string _dateRegis) public returns (bool){\n           if (checkPermission()<1){\n                return false;\n            }\n            \n           if (!checkOwner(_owner, _plate_id)){\n               return false;\n           }\n            else{\n                  Person storage p = vehicles[_plate_id].persons[vehicles[_plate_id].lenghtPerson] ;\n                  p.owner = _new_owner;\n                  p.dateRegis = _dateRegis;\n                  \n                  ownerVehilces[_new_owner].plate_id.push(_plate_id) -1;\n                  ownerVehilces[_new_owner].index.push(vehicles[_plate_id].lenghtPerson) -1;\n                  \n                  vehicles[_plate_id].lenghtPerson ++;\n                  return true;\n            }\n        }\n        \n        //Thay i trng thi ca phng tin\n        function changeStatus(string _plate_id, address _owner, int _status) public returns(bool){\n            if (checkPermission()<1){\n                return false;\n            }\n            \n            if (!checkOwner(_owner, _plate_id)){\n                return false;\n            }\n            else{\n                vehicles[_plate_id].status = _status;\n                return (true);\n            }\n        }\n    \n        //Ly s lng ch m phng tin  qua tay\n        function getOwnerLength(string _plate_id) public view returns(uint){\n            return vehicles[_plate_id].lenghtPerson;\n        }\n    \n         //Ly thng tin ngi ch cui cng ca phng tin\n        function getLastOwner(string _plate_id) public view returns (address){\n            return (vehicles[_plate_id].persons[vehicles[_plate_id].lenghtPerson-1].owner);\n        }\n    \n        //Ly thng tin v ch phng tin\n        function getOwnerInfo(string _plate_id, uint256 index) public view returns (address, string){\n            return (vehicles[_plate_id].persons[index].owner, vehicles[_plate_id].persons[index].dateRegis);\n        }\n       \n        //Ly thng tin v phng tin - nhng thng tin c nh.\n        function getFixedInfo(string _plate_id) view public returns (string, string, string, string, string) {\n            return(vehicles[_plate_id].name, vehicles[_plate_id].typeOfVehicle, vehicles[_plate_id].datePro, vehicles[_plate_id].manufac, vehicles[_plate_id].serial);\n        }\n    \n        //Ly thng tin v phng tin - nhng thng tin c th b thay i.\n        function getDynamicInfo(string _plate_id) view public returns (address, string, string, string, int){\n            address _owner = vehicles[_plate_id].persons[vehicles[_plate_id].lenghtPerson-1].owner;\n            string storage _dateRegis = vehicles[_plate_id].persons[vehicles[_plate_id].lenghtPerson-1].dateRegis;\n            return (_owner, _dateRegis , vehicles[_plate_id].color, vehicles[_plate_id].charactic, vehicles[_plate_id].status);\n        }\n    }\n",
  "sourcePath": "/Users/ps/Desktop/Hackathon/Train/Vehicle-Management/contracts/Vehicles.sol",
  "compiler": {
    "name": "solc",
    "version": "0.4.24+commit.e67f0147.Emscripten.clang"
  },
  "schemaVersion": "2.0.1",
  "updatedAt": "2018-08-27T04:10:17.175Z"
}